{
  "contractName": "Wordgasm",
  "abi": [
    {
      "inputs": [
        {
          "internalType": "contract WordCoin",
          "name": "_wordcoin",
          "type": "address"
        }
      ],
      "stateMutability": "nonpayable",
      "type": "constructor"
    },
    {
      "anonymous": false,
      "inputs": [
        {
          "indexed": true,
          "internalType": "address",
          "name": "_from",
          "type": "address"
        },
        {
          "indexed": false,
          "internalType": "bytes32",
          "name": "_word",
          "type": "bytes32"
        }
      ],
      "name": "NewWordAdded",
      "type": "event"
    },
    {
      "inputs": [],
      "name": "name",
      "outputs": [
        {
          "internalType": "string",
          "name": "",
          "type": "string"
        }
      ],
      "stateMutability": "view",
      "type": "function",
      "constant": true
    },
    {
      "inputs": [],
      "name": "owner",
      "outputs": [
        {
          "internalType": "address",
          "name": "",
          "type": "address"
        }
      ],
      "stateMutability": "view",
      "type": "function",
      "constant": true
    },
    {
      "inputs": [
        {
          "internalType": "address",
          "name": "",
          "type": "address"
        },
        {
          "internalType": "uint256",
          "name": "",
          "type": "uint256"
        }
      ],
      "name": "userWordRegistry",
      "outputs": [
        {
          "internalType": "bytes32",
          "name": "definition",
          "type": "bytes32"
        },
        {
          "internalType": "address",
          "name": "owner",
          "type": "address"
        },
        {
          "internalType": "bytes32",
          "name": "word",
          "type": "bytes32"
        },
        {
          "internalType": "address",
          "name": "transferdTo",
          "type": "address"
        }
      ],
      "stateMutability": "view",
      "type": "function",
      "constant": true
    },
    {
      "inputs": [],
      "name": "wordCoin",
      "outputs": [
        {
          "internalType": "contract WordCoin",
          "name": "",
          "type": "address"
        }
      ],
      "stateMutability": "view",
      "type": "function",
      "constant": true
    },
    {
      "inputs": [
        {
          "internalType": "bytes32",
          "name": "",
          "type": "bytes32"
        }
      ],
      "name": "wordRegistry",
      "outputs": [
        {
          "internalType": "bytes32",
          "name": "definition",
          "type": "bytes32"
        },
        {
          "internalType": "address",
          "name": "owner",
          "type": "address"
        },
        {
          "internalType": "bytes32",
          "name": "word",
          "type": "bytes32"
        },
        {
          "internalType": "address",
          "name": "transferdTo",
          "type": "address"
        }
      ],
      "stateMutability": "view",
      "type": "function",
      "constant": true
    },
    {
      "inputs": [
        {
          "internalType": "uint256",
          "name": "",
          "type": "uint256"
        }
      ],
      "name": "words",
      "outputs": [
        {
          "internalType": "bytes32",
          "name": "definition",
          "type": "bytes32"
        },
        {
          "internalType": "address",
          "name": "owner",
          "type": "address"
        },
        {
          "internalType": "bytes32",
          "name": "word",
          "type": "bytes32"
        },
        {
          "internalType": "address",
          "name": "transferdTo",
          "type": "address"
        }
      ],
      "stateMutability": "view",
      "type": "function",
      "constant": true
    },
    {
      "inputs": [
        {
          "internalType": "bytes32",
          "name": "_newWord",
          "type": "bytes32"
        },
        {
          "internalType": "bytes32",
          "name": "_definition",
          "type": "bytes32"
        }
      ],
      "name": "submitWord",
      "outputs": [],
      "stateMutability": "nonpayable",
      "type": "function"
    },
    {
      "inputs": [
        {
          "internalType": "bytes32",
          "name": "_word",
          "type": "bytes32"
        },
        {
          "internalType": "address",
          "name": "_newOwner",
          "type": "address"
        }
      ],
      "name": "transferOwnership",
      "outputs": [],
      "stateMutability": "nonpayable",
      "type": "function"
    },
    {
      "inputs": [],
      "name": "getAllWords",
      "outputs": [
        {
          "components": [
            {
              "internalType": "bytes32",
              "name": "definition",
              "type": "bytes32"
            },
            {
              "internalType": "address",
              "name": "owner",
              "type": "address"
            },
            {
              "internalType": "bytes32",
              "name": "word",
              "type": "bytes32"
            },
            {
              "internalType": "address",
              "name": "transferdTo",
              "type": "address"
            }
          ],
          "internalType": "struct Wordgasm.Word[]",
          "name": "",
          "type": "tuple[]"
        }
      ],
      "stateMutability": "view",
      "type": "function",
      "constant": true
    },
    {
      "inputs": [],
      "name": "getUserWords",
      "outputs": [
        {
          "components": [
            {
              "internalType": "bytes32",
              "name": "definition",
              "type": "bytes32"
            },
            {
              "internalType": "address",
              "name": "owner",
              "type": "address"
            },
            {
              "internalType": "bytes32",
              "name": "word",
              "type": "bytes32"
            },
            {
              "internalType": "address",
              "name": "transferdTo",
              "type": "address"
            }
          ],
          "internalType": "struct Wordgasm.Word[]",
          "name": "",
          "type": "tuple[]"
        }
      ],
      "stateMutability": "view",
      "type": "function",
      "constant": true
    }
  ],
  "bytecode": "0x60806040526040518060400160405280600c81526020017f576f72646761736d204170700000000000000000000000000000000000000000815250600090816200004a919062000381565b503480156200005857600080fd5b5060405162001ec838038062001ec883398181016040528101906200007e9190620004e6565b80600260006101000a81548173ffffffffffffffffffffffffffffffffffffffff021916908373ffffffffffffffffffffffffffffffffffffffff16021790555033600560006101000a81548173ffffffffffffffffffffffffffffffffffffffff021916908373ffffffffffffffffffffffffffffffffffffffff1602179055505062000518565b600081519050919050565b7f4e487b7100000000000000000000000000000000000000000000000000000000600052604160045260246000fd5b7f4e487b7100000000000000000000000000000000000000000000000000000000600052602260045260246000fd5b600060028204905060018216806200018957607f821691505b6020821081036200019f576200019e62000141565b5b50919050565b60008190508160005260206000209050919050565b60006020601f8301049050919050565b600082821b905092915050565b600060088302620002097fffffffffffffffffffffffffffffffffffffffffffffffffffffffffffffffff82620001ca565b620002158683620001ca565b95508019841693508086168417925050509392505050565b6000819050919050565b6000819050919050565b6000620002626200025c62000256846200022d565b62000237565b6200022d565b9050919050565b6000819050919050565b6200027e8362000241565b620002966200028d8262000269565b848454620001d7565b825550505050565b600090565b620002ad6200029e565b620002ba81848462000273565b505050565b5b81811015620002e257620002d6600082620002a3565b600181019050620002c0565b5050565b601f8211156200033157620002fb81620001a5565b6200030684620001ba565b8101602085101562000316578190505b6200032e6200032585620001ba565b830182620002bf565b50505b505050565b600082821c905092915050565b6000620003566000198460080262000336565b1980831691505092915050565b600062000371838362000343565b9150826002028217905092915050565b6200038c8262000107565b67ffffffffffffffff811115620003a857620003a762000112565b5b620003b4825462000170565b620003c1828285620002e6565b600060209050601f831160018114620003f95760008415620003e4578287015190505b620003f0858262000363565b86555062000460565b601f1984166200040986620001a5565b60005b8281101562000433578489015182556001820191506020850194506020810190506200040c565b868310156200045357848901516200044f601f89168262000343565b8355505b6001600288020188555050505b505050505050565b600080fd5b600073ffffffffffffffffffffffffffffffffffffffff82169050919050565b60006200049a826200046d565b9050919050565b6000620004ae826200048d565b9050919050565b620004c081620004a1565b8114620004cc57600080fd5b50565b600081519050620004e081620004b5565b92915050565b600060208284031215620004ff57620004fe62000468565b5b60006200050f84828501620004cf565b91505092915050565b6119a080620005286000396000f3fe608060405234801561001057600080fd5b506004361061009e5760003560e01c80638da5cb5b116100665780638da5cb5b14610161578063b03594a71461017f578063c5804de01461019d578063d480314d146101bb578063ef5d6bbb146101ee5761009e565b806306fdde03146100a357806350341312146100c15780635d131344146100f45780637e36f2e914610112578063884fc8381461012e575b600080fd5b6100ab61020a565b6040516100b89190611215565b60405180910390f35b6100db60048036038101906100d691906112d0565b610298565b6040516100eb9493929190611338565b60405180910390f35b6100fc610325565b60405161010991906113dc565b60405180910390f35b61012c60048036038101906101279190611423565b61034b565b005b61014860048036038101906101439190611463565b61081f565b6040516101589493929190611338565b60405180910390f35b61016961089f565b6040516101769190611490565b60405180910390f35b6101876108c5565b60405161019491906115cd565b60405180910390f35b6101a56109e4565b6040516101b291906115cd565b60405180910390f35b6101d560048036038101906101d091906115ef565b610b40565b6040516101e59493929190611338565b60405180910390f35b6102086004803603810190610203919061161c565b610bb0565b005b600080546102179061168b565b80601f01602080910402602001604051908101604052809291908181526020018280546102439061168b565b80156102905780601f1061026557610100808354040283529160200191610290565b820191906000526020600020905b81548152906001019060200180831161027357829003601f168201915b505050505081565b600460205281600052604060002081815481106102b457600080fd5b9060005260206000209060040201600091509150508060000154908060010160009054906101000a900473ffffffffffffffffffffffffffffffffffffffff16908060020154908060030160009054906101000a900473ffffffffffffffffffffffffffffffffffffffff16905084565b600260009054906101000a900473ffffffffffffffffffffffffffffffffffffffff1681565b6000801b6003600084815260200190815260200160002060020154146103a6576040517f08c379a000000000000000000000000000000000000000000000000000000000815260040161039d9061172e565b60405180910390fd5b600460003373ffffffffffffffffffffffffffffffffffffffff1673ffffffffffffffffffffffffffffffffffffffff16815260200190815260200160002060405180608001604052808381526020013373ffffffffffffffffffffffffffffffffffffffff168152602001848152602001600073ffffffffffffffffffffffffffffffffffffffff1681525090806001815401808255809150506001900390600052602060002090600402016000909190919091506000820151816000015560208201518160010160006101000a81548173ffffffffffffffffffffffffffffffffffffffff021916908373ffffffffffffffffffffffffffffffffffffffff1602179055506040820151816002015560608201518160030160006101000a81548173ffffffffffffffffffffffffffffffffffffffff021916908373ffffffffffffffffffffffffffffffffffffffff160217905550505060405180608001604052808281526020013373ffffffffffffffffffffffffffffffffffffffff168152602001838152602001600073ffffffffffffffffffffffffffffffffffffffff16815250600360008481526020019081526020016000206000820151816000015560208201518160010160006101000a81548173ffffffffffffffffffffffffffffffffffffffff021916908373ffffffffffffffffffffffffffffffffffffffff1602179055506040820151816002015560608201518160030160006101000a81548173ffffffffffffffffffffffffffffffffffffffff021916908373ffffffffffffffffffffffffffffffffffffffff160217905550905050600160405180608001604052808381526020013373ffffffffffffffffffffffffffffffffffffffff168152602001848152602001600073ffffffffffffffffffffffffffffffffffffffff1681525090806001815401808255809150506001900390600052602060002090600402016000909190919091506000820151816000015560208201518160010160006101000a81548173ffffffffffffffffffffffffffffffffffffffff021916908373ffffffffffffffffffffffffffffffffffffffff1602179055506040820151816002015560608201518160030160006101000a81548173ffffffffffffffffffffffffffffffffffffffff021916908373ffffffffffffffffffffffffffffffffffffffff1602179055505050600260009054906101000a900473ffffffffffffffffffffffffffffffffffffffff1673ffffffffffffffffffffffffffffffffffffffff166381a4af15336802b5e3af16b18800006040518363ffffffff1660e01b8152600401610789929190611789565b6020604051808303816000875af11580156107a8573d6000803e3d6000fd5b505050506040513d601f19601f820116820180604052508101906107cc91906117ea565b503373ffffffffffffffffffffffffffffffffffffffff167fbc1cb5450467fcefa3fc1f20e3c4731164e414fb8b4dda15511171f58b88f3eb836040516108139190611817565b60405180910390a25050565b6001818154811061082f57600080fd5b90600052602060002090600402016000915090508060000154908060010160009054906101000a900473ffffffffffffffffffffffffffffffffffffffff16908060020154908060030160009054906101000a900473ffffffffffffffffffffffffffffffffffffffff16905084565b600560009054906101000a900473ffffffffffffffffffffffffffffffffffffffff1681565b60606001805480602002602001604051908101604052809291908181526020016000905b828210156109db5783829060005260206000209060040201604051806080016040529081600082015481526020016001820160009054906101000a900473ffffffffffffffffffffffffffffffffffffffff1673ffffffffffffffffffffffffffffffffffffffff1673ffffffffffffffffffffffffffffffffffffffff168152602001600282015481526020016003820160009054906101000a900473ffffffffffffffffffffffffffffffffffffffff1673ffffffffffffffffffffffffffffffffffffffff1673ffffffffffffffffffffffffffffffffffffffff1681525050815260200190600101906108e9565b50505050905090565b6060600460003373ffffffffffffffffffffffffffffffffffffffff1673ffffffffffffffffffffffffffffffffffffffff168152602001908152602001600020805480602002602001604051908101604052809291908181526020016000905b82821015610b375783829060005260206000209060040201604051806080016040529081600082015481526020016001820160009054906101000a900473ffffffffffffffffffffffffffffffffffffffff1673ffffffffffffffffffffffffffffffffffffffff1673ffffffffffffffffffffffffffffffffffffffff168152602001600282015481526020016003820160009054906101000a900473ffffffffffffffffffffffffffffffffffffffff1673ffffffffffffffffffffffffffffffffffffffff1673ffffffffffffffffffffffffffffffffffffffff168152505081526020019060010190610a45565b50505050905090565b60036020528060005260406000206000915090508060000154908060010160009054906101000a900473ffffffffffffffffffffffffffffffffffffffff16908060020154908060030160009054906101000a900473ffffffffffffffffffffffffffffffffffffffff16905084565b3373ffffffffffffffffffffffffffffffffffffffff166003600084815260200190815260200160002060010160009054906101000a900473ffffffffffffffffffffffffffffffffffffffff1673ffffffffffffffffffffffffffffffffffffffff1614610c54576040517f08c379a0000000000000000000000000000000000000000000000000000000008152600401610c4b906118a4565b60405180910390fd5b806003600084815260200190815260200160002060010160006101000a81548173ffffffffffffffffffffffffffffffffffffffff021916908373ffffffffffffffffffffffffffffffffffffffff1602179055506000805b600460003373ffffffffffffffffffffffffffffffffffffffff1673ffffffffffffffffffffffffffffffffffffffff168152602001908152602001600020805490508110156111765783600460003373ffffffffffffffffffffffffffffffffffffffff1673ffffffffffffffffffffffffffffffffffffffff1681526020019081526020016000208281548110610d4957610d486118c4565b5b90600052602060002090600402016002015414610f1657600460003373ffffffffffffffffffffffffffffffffffffffff1673ffffffffffffffffffffffffffffffffffffffff1681526020019081526020016000208181548110610db157610db06118c4565b5b9060005260206000209060040201600460003373ffffffffffffffffffffffffffffffffffffffff1673ffffffffffffffffffffffffffffffffffffffff1681526020019081526020016000208381548110610e1057610e0f6118c4565b5b9060005260206000209060040201600082015481600001556001820160009054906101000a900473ffffffffffffffffffffffffffffffffffffffff168160010160006101000a81548173ffffffffffffffffffffffffffffffffffffffff021916908373ffffffffffffffffffffffffffffffffffffffff160217905550600282015481600201556003820160009054906101000a900473ffffffffffffffffffffffffffffffffffffffff168160030160006101000a81548173ffffffffffffffffffffffffffffffffffffffff021916908373ffffffffffffffffffffffffffffffffffffffff1602179055509050508180610f0e90611922565b925050611163565b600460008473ffffffffffffffffffffffffffffffffffffffff1673ffffffffffffffffffffffffffffffffffffffff168152602001908152602001600020600460003373ffffffffffffffffffffffffffffffffffffffff1673ffffffffffffffffffffffffffffffffffffffff1681526020019081526020016000208281548110610fa657610fa56118c4565b5b90600052602060002090600402019080600181540180825580915050600190039060005260206000209060040201600090919091909150600082015481600001556001820160009054906101000a900473ffffffffffffffffffffffffffffffffffffffff168160010160006101000a81548173ffffffffffffffffffffffffffffffffffffffff021916908373ffffffffffffffffffffffffffffffffffffffff160217905550600282015481600201556003820160009054906101000a900473ffffffffffffffffffffffffffffffffffffffff168160030160006101000a81548173ffffffffffffffffffffffffffffffffffffffff021916908373ffffffffffffffffffffffffffffffffffffffff160217905550505082600460003373ffffffffffffffffffffffffffffffffffffffff1673ffffffffffffffffffffffffffffffffffffffff1681526020019081526020016000208281548110611113576111126118c4565b5b906000526020600020906004020160030160006101000a81548173ffffffffffffffffffffffffffffffffffffffff021916908373ffffffffffffffffffffffffffffffffffffffff1602179055505b808061116e90611922565b915050610cad565b50505050565b600081519050919050565b600082825260208201905092915050565b60005b838110156111b657808201518184015260208101905061119b565b838111156111c5576000848401525b50505050565b6000601f19601f8301169050919050565b60006111e78261117c565b6111f18185611187565b9350611201818560208601611198565b61120a816111cb565b840191505092915050565b6000602082019050818103600083015261122f81846111dc565b905092915050565b600080fd5b600073ffffffffffffffffffffffffffffffffffffffff82169050919050565b60006112678261123c565b9050919050565b6112778161125c565b811461128257600080fd5b50565b6000813590506112948161126e565b92915050565b6000819050919050565b6112ad8161129a565b81146112b857600080fd5b50565b6000813590506112ca816112a4565b92915050565b600080604083850312156112e7576112e6611237565b5b60006112f585828601611285565b9250506020611306858286016112bb565b9150509250929050565b6000819050919050565b61132381611310565b82525050565b6113328161125c565b82525050565b600060808201905061134d600083018761131a565b61135a6020830186611329565b611367604083018561131a565b6113746060830184611329565b95945050505050565b6000819050919050565b60006113a261139d6113988461123c565b61137d565b61123c565b9050919050565b60006113b482611387565b9050919050565b60006113c6826113a9565b9050919050565b6113d6816113bb565b82525050565b60006020820190506113f160008301846113cd565b92915050565b61140081611310565b811461140b57600080fd5b50565b60008135905061141d816113f7565b92915050565b6000806040838503121561143a57611439611237565b5b60006114488582860161140e565b92505060206114598582860161140e565b9150509250929050565b60006020828403121561147957611478611237565b5b6000611487848285016112bb565b91505092915050565b60006020820190506114a56000830184611329565b92915050565b600081519050919050565b600082825260208201905092915050565b6000819050602082019050919050565b6114e081611310565b82525050565b6114ef8161125c565b82525050565b60808201600082015161150b60008501826114d7565b50602082015161151e60208501826114e6565b50604082015161153160408501826114d7565b50606082015161154460608501826114e6565b50505050565b600061155683836114f5565b60808301905092915050565b6000602082019050919050565b600061157a826114ab565b61158481856114b6565b935061158f836114c7565b8060005b838110156115c05781516115a7888261154a565b97506115b283611562565b925050600181019050611593565b5085935050505092915050565b600060208201905081810360008301526115e7818461156f565b905092915050565b60006020828403121561160557611604611237565b5b60006116138482850161140e565b91505092915050565b6000806040838503121561163357611632611237565b5b60006116418582860161140e565b925050602061165285828601611285565b9150509250929050565b7f4e487b7100000000000000000000000000000000000000000000000000000000600052602260045260246000fd5b600060028204905060018216806116a357607f821691505b6020821081036116b6576116b561165c565b5b50919050565b7f5468697320776f72642068617320616c7265616479206265656e207375626d6960008201527f7474656400000000000000000000000000000000000000000000000000000000602082015250565b6000611718602483611187565b9150611723826116bc565b604082019050919050565b600060208201905081810360008301526117478161170b565b9050919050565b6000819050919050565b600061177361176e6117698461174e565b61137d565b61129a565b9050919050565b61178381611758565b82525050565b600060408201905061179e6000830185611329565b6117ab602083018461177a565b9392505050565b60008115159050919050565b6117c7816117b2565b81146117d257600080fd5b50565b6000815190506117e4816117be565b92915050565b600060208284031215611800576117ff611237565b5b600061180e848285016117d5565b91505092915050565b600060208201905061182c600083018461131a565b92915050565b7f4f6e6c7920746865206f776e65722063616e207472616e73666572206f776e6560008201527f7273686970000000000000000000000000000000000000000000000000000000602082015250565b600061188e602583611187565b915061189982611832565b604082019050919050565b600060208201905081810360008301526118bd81611881565b9050919050565b7f4e487b7100000000000000000000000000000000000000000000000000000000600052603260045260246000fd5b7f4e487b7100000000000000000000000000000000000000000000000000000000600052601160045260246000fd5b600061192d8261129a565b91507fffffffffffffffffffffffffffffffffffffffffffffffffffffffffffffffff820361195f5761195e6118f3565b5b60018201905091905056fea26469706673582212205cfb1530a09882edaaf43260ccc5753fd562cee9417ad6f7576d8395277113e964736f6c634300080f0033",
  "immutableReferences": {},
  "source": "// SPDX-License-Identifier: GPL-3.0\npragma solidity >=0.4.22 <0.9.0;\n\nimport \"./WordCoin.sol\";\n\ncontract Wordgasm {\n    string public name = \"Wordgasm App\";\n    Word[] public words;\n    WordCoin public wordCoin;\n    mapping(bytes32 =>Word) public wordRegistry;\n    mapping(address =>Word[]) public userWordRegistry;\n    address public owner;\n    constructor(WordCoin _wordcoin) {\n        wordCoin = _wordcoin;\n        owner = msg.sender;\n    }\n\n    event NewWordAdded(address indexed _from, bytes32 _word);\n      struct Word {\n        bytes32 definition;\n        address owner;\n        bytes32 word;\n        address transferdTo;\n    }\n\n     // This function allows users to add new words to the blockchain\n    function submitWord(bytes32 _newWord, bytes32 _definition ) public {\n        // Ensure that the word has not already been submitted\n        require(wordRegistry[_newWord].word == 0x0000000000000000000000000000000000000000000000000000000000000000 , \"This word has already been submitted\");\n        // Add the word to the blockchain and store the definition and the address of the submitter\n        userWordRegistry[msg.sender].push(Word(_definition,msg.sender,_newWord,0x0000000000000000000000000000000000000000));\n        wordRegistry[_newWord] = Word(_definition,msg.sender,_newWord,0x0000000000000000000000000000000000000000);\n        words.push(Word(_definition,msg.sender,_newWord,0x0000000000000000000000000000000000000000));\n        wordCoin.rewardTokens(msg.sender,50000000000000000000);\n        emit NewWordAdded(msg.sender,_newWord);\n    }\n\n    function transferOwnership(bytes32 _word, address _newOwner) public {\n        // Ensure that the caller is the owner of the word\n        require(wordRegistry[_word].owner == msg.sender, \"Only the owner can transfer ownership\");\n\n        // Transfer ownership of the word to the new owner\n        wordRegistry[_word].owner = _newOwner;\n        uint j= 0;\n        for(uint i=0;i<userWordRegistry[msg.sender].length;i++){\n            if(userWordRegistry[msg.sender][i].word != _word) {\n                userWordRegistry[msg.sender][j] = userWordRegistry[msg.sender][i];\n                j++;\n            } else {\n                userWordRegistry[_newOwner].push(userWordRegistry[msg.sender][i]);\n                userWordRegistry[msg.sender][i].transferdTo = _newOwner;\n            }\n        }\n    }\n\n    function getAllWords() public view returns (Word[] memory) {\n        return words;\n    }\n    function getUserWords() public view returns (Word[] memory) {\n        return userWordRegistry[msg.sender];\n    }\n}",
  "sourcePath": "/Users/shubamagrawal/Documents/wordgasm/src/contracts/Wordgasm.sol",
  "compiler": {
    "name": "solc",
    "version": "0.8.15+commit.e14f2714.Emscripten.clang"
  },
  "schemaVersion": "3.4.10",
  "updatedAt": "2023-01-15T11:01:43.188Z",
  "networkType": "ethereum",
  "devdoc": {
    "kind": "dev",
    "methods": {},
    "version": 1
  },
  "userdoc": {
    "kind": "user",
    "methods": {},
    "version": 1
  }
}