{
  "contractName": "Wordgasm",
  "abi": [
    {
      "inputs": [
        {
          "internalType": "contract WordCoin",
          "name": "_wordcoin",
          "type": "address"
        }
      ],
      "stateMutability": "nonpayable",
      "type": "constructor"
    },
    {
      "anonymous": false,
      "inputs": [
        {
          "indexed": true,
          "internalType": "address",
          "name": "_from",
          "type": "address"
        },
        {
          "indexed": false,
          "internalType": "bytes32",
          "name": "_word",
          "type": "bytes32"
        }
      ],
      "name": "NewWordAdded",
      "type": "event"
    },
    {
      "inputs": [],
      "name": "owner",
      "outputs": [
        {
          "internalType": "address",
          "name": "",
          "type": "address"
        }
      ],
      "stateMutability": "view",
      "type": "function",
      "constant": true
    },
    {
      "inputs": [
        {
          "internalType": "address",
          "name": "",
          "type": "address"
        },
        {
          "internalType": "uint256",
          "name": "",
          "type": "uint256"
        }
      ],
      "name": "userWordRegistry",
      "outputs": [
        {
          "internalType": "bytes32",
          "name": "definition",
          "type": "bytes32"
        },
        {
          "internalType": "address",
          "name": "owner",
          "type": "address"
        },
        {
          "internalType": "bytes32",
          "name": "word",
          "type": "bytes32"
        }
      ],
      "stateMutability": "view",
      "type": "function",
      "constant": true
    },
    {
      "inputs": [],
      "name": "wordCoin",
      "outputs": [
        {
          "internalType": "contract WordCoin",
          "name": "",
          "type": "address"
        }
      ],
      "stateMutability": "view",
      "type": "function",
      "constant": true
    },
    {
      "inputs": [
        {
          "internalType": "bytes32",
          "name": "",
          "type": "bytes32"
        }
      ],
      "name": "wordRegistry",
      "outputs": [
        {
          "internalType": "bytes32",
          "name": "definition",
          "type": "bytes32"
        },
        {
          "internalType": "address",
          "name": "owner",
          "type": "address"
        },
        {
          "internalType": "bytes32",
          "name": "word",
          "type": "bytes32"
        }
      ],
      "stateMutability": "view",
      "type": "function",
      "constant": true
    },
    {
      "inputs": [
        {
          "internalType": "uint256",
          "name": "",
          "type": "uint256"
        }
      ],
      "name": "words",
      "outputs": [
        {
          "internalType": "bytes32",
          "name": "definition",
          "type": "bytes32"
        },
        {
          "internalType": "address",
          "name": "owner",
          "type": "address"
        },
        {
          "internalType": "bytes32",
          "name": "word",
          "type": "bytes32"
        }
      ],
      "stateMutability": "view",
      "type": "function",
      "constant": true
    },
    {
      "inputs": [
        {
          "internalType": "bytes32",
          "name": "_newWord",
          "type": "bytes32"
        },
        {
          "internalType": "bytes32",
          "name": "_definition",
          "type": "bytes32"
        }
      ],
      "name": "submitWord",
      "outputs": [],
      "stateMutability": "nonpayable",
      "type": "function"
    },
    {
      "inputs": [
        {
          "internalType": "bytes32",
          "name": "_word",
          "type": "bytes32"
        },
        {
          "internalType": "address",
          "name": "_newOwner",
          "type": "address"
        }
      ],
      "name": "transferOwnership",
      "outputs": [],
      "stateMutability": "nonpayable",
      "type": "function"
    },
    {
      "inputs": [],
      "name": "getAllWords",
      "outputs": [
        {
          "components": [
            {
              "internalType": "bytes32",
              "name": "definition",
              "type": "bytes32"
            },
            {
              "internalType": "address",
              "name": "owner",
              "type": "address"
            },
            {
              "internalType": "bytes32",
              "name": "word",
              "type": "bytes32"
            }
          ],
          "internalType": "struct Wordgasm.Word[]",
          "name": "",
          "type": "tuple[]"
        }
      ],
      "stateMutability": "view",
      "type": "function",
      "constant": true
    },
    {
      "inputs": [],
      "name": "getUserWords",
      "outputs": [
        {
          "components": [
            {
              "internalType": "bytes32",
              "name": "definition",
              "type": "bytes32"
            },
            {
              "internalType": "address",
              "name": "owner",
              "type": "address"
            },
            {
              "internalType": "bytes32",
              "name": "word",
              "type": "bytes32"
            }
          ],
          "internalType": "struct Wordgasm.Word[]",
          "name": "",
          "type": "tuple[]"
        }
      ],
      "stateMutability": "view",
      "type": "function",
      "constant": true
    }
  ],
  "bytecode": "0x60806040523480156200001157600080fd5b506040516200157c3803806200157c83398181016040528101906200003791906200013e565b80600360006101000a81548173ffffffffffffffffffffffffffffffffffffffff021916908373ffffffffffffffffffffffffffffffffffffffff16021790555033600460006101000a81548173ffffffffffffffffffffffffffffffffffffffff021916908373ffffffffffffffffffffffffffffffffffffffff1602179055505062000170565b600080fd5b600073ffffffffffffffffffffffffffffffffffffffff82169050919050565b6000620000f282620000c5565b9050919050565b60006200010682620000e5565b9050919050565b6200011881620000f9565b81146200012457600080fd5b50565b60008151905062000138816200010d565b92915050565b600060208284031215620001575762000156620000c0565b5b6000620001678482850162000127565b91505092915050565b6113fc80620001806000396000f3fe608060405234801561001057600080fd5b50600436106100935760003560e01c80638da5cb5b116100665780638da5cb5b14610136578063b03594a714610154578063c5804de014610172578063d480314d14610190578063ef5d6bbb146101c257610093565b806350341312146100985780635d131344146100ca5780637e36f2e9146100e8578063884fc83814610104575b600080fd5b6100b260048036038101906100ad9190610d9c565b6101de565b6040516100c193929190610e04565b60405180910390f35b6100d2610245565b6040516100df9190610e9a565b60405180910390f35b61010260048036038101906100fd9190610ee1565b61026b565b005b61011e60048036038101906101199190610f21565b61060f565b60405161012d93929190610e04565b60405180910390f35b61013e610669565b60405161014b9190610f4e565b60405180910390f35b61015c61068f565b6040516101699190611078565b60405180910390f35b61017a610758565b6040516101879190611078565b60405180910390f35b6101aa60048036038101906101a5919061109a565b61085e565b6040516101b993929190610e04565b60405180910390f35b6101dc60048036038101906101d791906110c7565b6108a8565b005b600160205281600052604060002081815481106101fa57600080fd5b9060005260206000209060030201600091509150508060000154908060010160009054906101000a900473ffffffffffffffffffffffffffffffffffffffff16908060020154905083565b600360009054906101000a900473ffffffffffffffffffffffffffffffffffffffff1681565b600080600084815260200190815260200160002060020154036102c3576040517f08c379a00000000000000000000000000000000000000000000000000000000081526004016102ba9061118a565b60405180910390fd5b600160003373ffffffffffffffffffffffffffffffffffffffff1673ffffffffffffffffffffffffffffffffffffffff16815260200190815260200160002060405180606001604052808381526020013373ffffffffffffffffffffffffffffffffffffffff1681526020018481525090806001815401808255809150506001900390600052602060002090600302016000909190919091506000820151816000015560208201518160010160006101000a81548173ffffffffffffffffffffffffffffffffffffffff021916908373ffffffffffffffffffffffffffffffffffffffff16021790555060408201518160020155505060405180606001604052808281526020013373ffffffffffffffffffffffffffffffffffffffff168152602001838152506000808481526020019081526020016000206000820151816000015560208201518160010160006101000a81548173ffffffffffffffffffffffffffffffffffffffff021916908373ffffffffffffffffffffffffffffffffffffffff16021790555060408201518160020155905050600260405180606001604052808381526020013373ffffffffffffffffffffffffffffffffffffffff1681526020018481525090806001815401808255809150506001900390600052602060002090600302016000909190919091506000820151816000015560208201518160010160006101000a81548173ffffffffffffffffffffffffffffffffffffffff021916908373ffffffffffffffffffffffffffffffffffffffff160217905550604082015181600201555050600360009054906101000a900473ffffffffffffffffffffffffffffffffffffffff1673ffffffffffffffffffffffffffffffffffffffff166381a4af15336802b5e3af16b18800006040518363ffffffff1660e01b81526004016105799291906111e5565b6020604051808303816000875af1158015610598573d6000803e3d6000fd5b505050506040513d601f19601f820116820180604052508101906105bc9190611246565b503373ffffffffffffffffffffffffffffffffffffffff167fbc1cb5450467fcefa3fc1f20e3c4731164e414fb8b4dda15511171f58b88f3eb836040516106039190611273565b60405180910390a25050565b6002818154811061061f57600080fd5b90600052602060002090600302016000915090508060000154908060010160009054906101000a900473ffffffffffffffffffffffffffffffffffffffff16908060020154905083565b600460009054906101000a900473ffffffffffffffffffffffffffffffffffffffff1681565b60606002805480602002602001604051908101604052809291908181526020016000905b8282101561074f5783829060005260206000209060030201604051806060016040529081600082015481526020016001820160009054906101000a900473ffffffffffffffffffffffffffffffffffffffff1673ffffffffffffffffffffffffffffffffffffffff1673ffffffffffffffffffffffffffffffffffffffff168152602001600282015481525050815260200190600101906106b3565b50505050905090565b6060600160003373ffffffffffffffffffffffffffffffffffffffff1673ffffffffffffffffffffffffffffffffffffffff168152602001908152602001600020805480602002602001604051908101604052809291908181526020016000905b828210156108555783829060005260206000209060030201604051806060016040529081600082015481526020016001820160009054906101000a900473ffffffffffffffffffffffffffffffffffffffff1673ffffffffffffffffffffffffffffffffffffffff1673ffffffffffffffffffffffffffffffffffffffff168152602001600282015481525050815260200190600101906107b9565b50505050905090565b60006020528060005260406000206000915090508060000154908060010160009054906101000a900473ffffffffffffffffffffffffffffffffffffffff16908060020154905083565b3373ffffffffffffffffffffffffffffffffffffffff1660008084815260200190815260200160002060010160009054906101000a900473ffffffffffffffffffffffffffffffffffffffff1673ffffffffffffffffffffffffffffffffffffffff161461094b576040517f08c379a000000000000000000000000000000000000000000000000000000000815260040161094290611300565b60405180910390fd5b8060008084815260200190815260200160002060010160006101000a81548173ffffffffffffffffffffffffffffffffffffffff021916908373ffffffffffffffffffffffffffffffffffffffff1602179055506000805b600160003373ffffffffffffffffffffffffffffffffffffffff1673ffffffffffffffffffffffffffffffffffffffff16815260200190815260200160002080549050811015610cfd5783600160003373ffffffffffffffffffffffffffffffffffffffff1673ffffffffffffffffffffffffffffffffffffffff1681526020019081526020016000208281548110610a3f57610a3e611320565b5b90600052602060002090600302016002015414610ba557600160003373ffffffffffffffffffffffffffffffffffffffff1673ffffffffffffffffffffffffffffffffffffffff1681526020019081526020016000208181548110610aa757610aa6611320565b5b9060005260206000209060030201600160003373ffffffffffffffffffffffffffffffffffffffff1673ffffffffffffffffffffffffffffffffffffffff1681526020019081526020016000208381548110610b0657610b05611320565b5b9060005260206000209060030201600082015481600001556001820160009054906101000a900473ffffffffffffffffffffffffffffffffffffffff168160010160006101000a81548173ffffffffffffffffffffffffffffffffffffffff021916908373ffffffffffffffffffffffffffffffffffffffff160217905550600282015481600201559050508180610b9d9061137e565b925050610cea565b600160008473ffffffffffffffffffffffffffffffffffffffff1673ffffffffffffffffffffffffffffffffffffffff168152602001908152602001600020600160003373ffffffffffffffffffffffffffffffffffffffff1673ffffffffffffffffffffffffffffffffffffffff1681526020019081526020016000208281548110610c3557610c34611320565b5b90600052602060002090600302019080600181540180825580915050600190039060005260206000209060030201600090919091909150600082015481600001556001820160009054906101000a900473ffffffffffffffffffffffffffffffffffffffff168160010160006101000a81548173ffffffffffffffffffffffffffffffffffffffff021916908373ffffffffffffffffffffffffffffffffffffffff1602179055506002820154816002015550505b8080610cf59061137e565b9150506109a3565b50505050565b600080fd5b600073ffffffffffffffffffffffffffffffffffffffff82169050919050565b6000610d3382610d08565b9050919050565b610d4381610d28565b8114610d4e57600080fd5b50565b600081359050610d6081610d3a565b92915050565b6000819050919050565b610d7981610d66565b8114610d8457600080fd5b50565b600081359050610d9681610d70565b92915050565b60008060408385031215610db357610db2610d03565b5b6000610dc185828601610d51565b9250506020610dd285828601610d87565b9150509250929050565b6000819050919050565b610def81610ddc565b82525050565b610dfe81610d28565b82525050565b6000606082019050610e196000830186610de6565b610e266020830185610df5565b610e336040830184610de6565b949350505050565b6000819050919050565b6000610e60610e5b610e5684610d08565b610e3b565b610d08565b9050919050565b6000610e7282610e45565b9050919050565b6000610e8482610e67565b9050919050565b610e9481610e79565b82525050565b6000602082019050610eaf6000830184610e8b565b92915050565b610ebe81610ddc565b8114610ec957600080fd5b50565b600081359050610edb81610eb5565b92915050565b60008060408385031215610ef857610ef7610d03565b5b6000610f0685828601610ecc565b9250506020610f1785828601610ecc565b9150509250929050565b600060208284031215610f3757610f36610d03565b5b6000610f4584828501610d87565b91505092915050565b6000602082019050610f636000830184610df5565b92915050565b600081519050919050565b600082825260208201905092915050565b6000819050602082019050919050565b610f9e81610ddc565b82525050565b610fad81610d28565b82525050565b606082016000820151610fc96000850182610f95565b506020820151610fdc6020850182610fa4565b506040820151610fef6040850182610f95565b50505050565b60006110018383610fb3565b60608301905092915050565b6000602082019050919050565b600061102582610f69565b61102f8185610f74565b935061103a83610f85565b8060005b8381101561106b5781516110528882610ff5565b975061105d8361100d565b92505060018101905061103e565b5085935050505092915050565b60006020820190508181036000830152611092818461101a565b905092915050565b6000602082840312156110b0576110af610d03565b5b60006110be84828501610ecc565b91505092915050565b600080604083850312156110de576110dd610d03565b5b60006110ec85828601610ecc565b92505060206110fd85828601610d51565b9150509250929050565b600082825260208201905092915050565b7f5468697320776f72642068617320616c7265616479206265656e207375626d6960008201527f7474656400000000000000000000000000000000000000000000000000000000602082015250565b6000611174602483611107565b915061117f82611118565b604082019050919050565b600060208201905081810360008301526111a381611167565b9050919050565b6000819050919050565b60006111cf6111ca6111c5846111aa565b610e3b565b610d66565b9050919050565b6111df816111b4565b82525050565b60006040820190506111fa6000830185610df5565b61120760208301846111d6565b9392505050565b60008115159050919050565b6112238161120e565b811461122e57600080fd5b50565b6000815190506112408161121a565b92915050565b60006020828403121561125c5761125b610d03565b5b600061126a84828501611231565b91505092915050565b60006020820190506112886000830184610de6565b92915050565b7f4f6e6c7920746865206f776e65722063616e207472616e73666572206f776e6560008201527f7273686970000000000000000000000000000000000000000000000000000000602082015250565b60006112ea602583611107565b91506112f58261128e565b604082019050919050565b60006020820190508181036000830152611319816112dd565b9050919050565b7f4e487b7100000000000000000000000000000000000000000000000000000000600052603260045260246000fd5b7f4e487b7100000000000000000000000000000000000000000000000000000000600052601160045260246000fd5b600061138982610d66565b91507fffffffffffffffffffffffffffffffffffffffffffffffffffffffffffffffff82036113bb576113ba61134f565b5b60018201905091905056fea264697066735822122054c7d5fd69995817ddeb53b2727bd5350b035f756a48a2865a65b2af2ebc622d64736f6c634300080f0033",
  "immutableReferences": {},
  "source": "// SPDX-License-Identifier: GPL-3.0\npragma solidity >=0.4.22 <0.9.0;\n\nimport \"./WordCoin.sol\";\n\ncontract Wordgasm {\n    mapping(bytes32 =>Word) public wordRegistry;\n    mapping(address =>Word[]) public userWordRegistry;\n    Word[] public words;\n    WordCoin public wordCoin;\n    address public owner;\n    constructor(WordCoin _wordcoin) {\n        wordCoin = _wordcoin;\n        owner = msg.sender;\n    }\n\n\n    event NewWordAdded(address indexed _from, bytes32 _word);\n      struct Word {\n        bytes32 definition;\n        address owner;\n        bytes32 word;\n    }\n\n     // This function allows users to add new words to the blockchain\n    function submitWord(bytes32 _newWord, bytes32 _definition ) public {\n        // Ensure that the word has not already been submitted\n        require(wordRegistry[_newWord].word !=\"\" , \"This word has already been submitted\");\n\n        // Add the word to the blockchain and store the definition and the address of the submitter\n        userWordRegistry[msg.sender].push(Word(_definition,msg.sender,_newWord));\n        wordRegistry[_newWord] = Word(_definition,msg.sender,_newWord);\n        words.push(Word(_definition,msg.sender,_newWord));\n        wordCoin.rewardTokens(msg.sender,50000000000000000000);\n        emit NewWordAdded(msg.sender,_newWord);\n    }\n\n    function transferOwnership(bytes32 _word, address _newOwner) public {\n        // Ensure that the caller is the owner of the word\n        require(wordRegistry[_word].owner == msg.sender, \"Only the owner can transfer ownership\");\n\n        // Transfer ownership of the word to the new owner\n        wordRegistry[_word].owner = _newOwner;\n        uint j= 0;\n        for(uint i=0;i<userWordRegistry[msg.sender].length;i++){\n            if(userWordRegistry[msg.sender][i].word != _word) {\n                // updatedWords[j] = userWordRegistry[msg.sender][i];\n                userWordRegistry[msg.sender][j] = userWordRegistry[msg.sender][i];\n                j++;\n            } else {\n                userWordRegistry[_newOwner].push(userWordRegistry[msg.sender][i]);\n            }\n        }\n\n    }\n\n    function getAllWords() public view returns (Word[] memory) {\n        return words;\n    }\n\n    function getUserWords() public view returns (Word[] memory) {\n        return userWordRegistry[msg.sender];\n    }\n}",
  "sourcePath": "/Users/shubamagrawal/Documents/wordgasm/src/contracts/Wordgasm.sol",
  "compiler": {
    "name": "solc",
    "version": "0.8.15+commit.e14f2714.Emscripten.clang"
  },
  "schemaVersion": "3.4.10",
  "updatedAt": "2023-01-08T17:45:17.407Z",
  "networkType": "ethereum",
  "devdoc": {
    "kind": "dev",
    "methods": {},
    "version": 1
  },
  "userdoc": {
    "kind": "user",
    "methods": {},
    "version": 1
  }
}