{
  "contractName": "Wordgasm",
  "abi": [
    {
      "anonymous": false,
      "inputs": [
        {
          "indexed": true,
          "internalType": "address",
          "name": "_from",
          "type": "address"
        },
        {
          "indexed": false,
          "internalType": "bytes32",
          "name": "_word",
          "type": "bytes32"
        }
      ],
      "name": "NewWordAdded",
      "type": "event"
    },
    {
      "inputs": [
        {
          "internalType": "address",
          "name": "",
          "type": "address"
        },
        {
          "internalType": "uint256",
          "name": "",
          "type": "uint256"
        }
      ],
      "name": "userWordRegistry",
      "outputs": [
        {
          "internalType": "bytes32",
          "name": "definition",
          "type": "bytes32"
        },
        {
          "internalType": "address",
          "name": "owner",
          "type": "address"
        },
        {
          "internalType": "bytes32",
          "name": "word",
          "type": "bytes32"
        }
      ],
      "stateMutability": "view",
      "type": "function",
      "constant": true
    },
    {
      "inputs": [
        {
          "internalType": "bytes32",
          "name": "",
          "type": "bytes32"
        }
      ],
      "name": "wordRegistry",
      "outputs": [
        {
          "internalType": "bytes32",
          "name": "definition",
          "type": "bytes32"
        },
        {
          "internalType": "address",
          "name": "owner",
          "type": "address"
        },
        {
          "internalType": "bytes32",
          "name": "word",
          "type": "bytes32"
        }
      ],
      "stateMutability": "view",
      "type": "function",
      "constant": true
    },
    {
      "inputs": [
        {
          "internalType": "uint256",
          "name": "",
          "type": "uint256"
        }
      ],
      "name": "words",
      "outputs": [
        {
          "internalType": "bytes32",
          "name": "definition",
          "type": "bytes32"
        },
        {
          "internalType": "address",
          "name": "owner",
          "type": "address"
        },
        {
          "internalType": "bytes32",
          "name": "word",
          "type": "bytes32"
        }
      ],
      "stateMutability": "view",
      "type": "function",
      "constant": true
    },
    {
      "inputs": [
        {
          "internalType": "bytes32",
          "name": "_newWord",
          "type": "bytes32"
        },
        {
          "internalType": "bytes32",
          "name": "_definition",
          "type": "bytes32"
        }
      ],
      "name": "submitWord",
      "outputs": [],
      "stateMutability": "nonpayable",
      "type": "function"
    },
    {
      "inputs": [
        {
          "internalType": "bytes32",
          "name": "_word",
          "type": "bytes32"
        },
        {
          "internalType": "address",
          "name": "_newOwner",
          "type": "address"
        }
      ],
      "name": "transferOwnership",
      "outputs": [],
      "stateMutability": "nonpayable",
      "type": "function"
    },
    {
      "inputs": [],
      "name": "getAllWords",
      "outputs": [
        {
          "components": [
            {
              "internalType": "bytes32",
              "name": "definition",
              "type": "bytes32"
            },
            {
              "internalType": "address",
              "name": "owner",
              "type": "address"
            },
            {
              "internalType": "bytes32",
              "name": "word",
              "type": "bytes32"
            }
          ],
          "internalType": "struct Wordgasm.Word[]",
          "name": "",
          "type": "tuple[]"
        }
      ],
      "stateMutability": "view",
      "type": "function",
      "constant": true
    },
    {
      "inputs": [],
      "name": "getUserWords",
      "outputs": [
        {
          "components": [
            {
              "internalType": "bytes32",
              "name": "definition",
              "type": "bytes32"
            },
            {
              "internalType": "address",
              "name": "owner",
              "type": "address"
            },
            {
              "internalType": "bytes32",
              "name": "word",
              "type": "bytes32"
            }
          ],
          "internalType": "struct Wordgasm.Word[]",
          "name": "",
          "type": "tuple[]"
        }
      ],
      "stateMutability": "view",
      "type": "function",
      "constant": true
    }
  ],
  "bytecode": "0x608060405234801561001057600080fd5b50611156806100206000396000f3fe608060405234801561001057600080fd5b506004361061007d5760003560e01c8063b03594a71161005b578063b03594a714610102578063c5804de014610120578063d480314d1461013e578063ef5d6bbb146101705761007d565b806350341312146100825780637e36f2e9146100b4578063884fc838146100d0575b600080fd5b61009c60048036038101906100979190610c54565b61018c565b6040516100ab93929190610cbc565b60405180910390f35b6100ce60048036038101906100c99190610d1f565b6101f3565b005b6100ea60048036038101906100e59190610d5f565b6104ed565b6040516100f993929190610cbc565b60405180910390f35b61010a610547565b6040516101179190610e9b565b60405180910390f35b610128610610565b6040516101359190610e9b565b60405180910390f35b61015860048036038101906101539190610ebd565b610716565b60405161016793929190610cbc565b60405180910390f35b61018a60048036038101906101859190610eea565b610760565b005b600160205281600052604060002081815481106101a857600080fd5b9060005260206000209060030201600091509150508060000154908060010160009054906101000a900473ffffffffffffffffffffffffffffffffffffffff16908060020154905083565b6000806000848152602001908152602001600020600201540361024b576040517f08c379a000000000000000000000000000000000000000000000000000000000815260040161024290610fad565b60405180910390fd5b600160003373ffffffffffffffffffffffffffffffffffffffff1673ffffffffffffffffffffffffffffffffffffffff16815260200190815260200160002060405180606001604052808381526020013373ffffffffffffffffffffffffffffffffffffffff1681526020018481525090806001815401808255809150506001900390600052602060002090600302016000909190919091506000820151816000015560208201518160010160006101000a81548173ffffffffffffffffffffffffffffffffffffffff021916908373ffffffffffffffffffffffffffffffffffffffff16021790555060408201518160020155505060405180606001604052808281526020013373ffffffffffffffffffffffffffffffffffffffff168152602001838152506000808481526020019081526020016000206000820151816000015560208201518160010160006101000a81548173ffffffffffffffffffffffffffffffffffffffff021916908373ffffffffffffffffffffffffffffffffffffffff160217905550604082015181600201559050503373ffffffffffffffffffffffffffffffffffffffff167fbc1cb5450467fcefa3fc1f20e3c4731164e414fb8b4dda15511171f58b88f3eb836040516104289190610fcd565b60405180910390a2600260405180606001604052808381526020013373ffffffffffffffffffffffffffffffffffffffff1681526020018481525090806001815401808255809150506001900390600052602060002090600302016000909190919091506000820151816000015560208201518160010160006101000a81548173ffffffffffffffffffffffffffffffffffffffff021916908373ffffffffffffffffffffffffffffffffffffffff1602179055506040820151816002015550505050565b600281815481106104fd57600080fd5b90600052602060002090600302016000915090508060000154908060010160009054906101000a900473ffffffffffffffffffffffffffffffffffffffff16908060020154905083565b60606002805480602002602001604051908101604052809291908181526020016000905b828210156106075783829060005260206000209060030201604051806060016040529081600082015481526020016001820160009054906101000a900473ffffffffffffffffffffffffffffffffffffffff1673ffffffffffffffffffffffffffffffffffffffff1673ffffffffffffffffffffffffffffffffffffffff1681526020016002820154815250508152602001906001019061056b565b50505050905090565b6060600160003373ffffffffffffffffffffffffffffffffffffffff1673ffffffffffffffffffffffffffffffffffffffff168152602001908152602001600020805480602002602001604051908101604052809291908181526020016000905b8282101561070d5783829060005260206000209060030201604051806060016040529081600082015481526020016001820160009054906101000a900473ffffffffffffffffffffffffffffffffffffffff1673ffffffffffffffffffffffffffffffffffffffff1673ffffffffffffffffffffffffffffffffffffffff16815260200160028201548152505081526020019060010190610671565b50505050905090565b60006020528060005260406000206000915090508060000154908060010160009054906101000a900473ffffffffffffffffffffffffffffffffffffffff16908060020154905083565b3373ffffffffffffffffffffffffffffffffffffffff1660008084815260200190815260200160002060010160009054906101000a900473ffffffffffffffffffffffffffffffffffffffff1673ffffffffffffffffffffffffffffffffffffffff1614610803576040517f08c379a00000000000000000000000000000000000000000000000000000000081526004016107fa9061105a565b60405180910390fd5b8060008084815260200190815260200160002060010160006101000a81548173ffffffffffffffffffffffffffffffffffffffff021916908373ffffffffffffffffffffffffffffffffffffffff1602179055506000805b600160003373ffffffffffffffffffffffffffffffffffffffff1673ffffffffffffffffffffffffffffffffffffffff16815260200190815260200160002080549050811015610bb55783600160003373ffffffffffffffffffffffffffffffffffffffff1673ffffffffffffffffffffffffffffffffffffffff16815260200190815260200160002082815481106108f7576108f661107a565b5b90600052602060002090600302016002015414610a5d57600160003373ffffffffffffffffffffffffffffffffffffffff1673ffffffffffffffffffffffffffffffffffffffff168152602001908152602001600020818154811061095f5761095e61107a565b5b9060005260206000209060030201600160003373ffffffffffffffffffffffffffffffffffffffff1673ffffffffffffffffffffffffffffffffffffffff16815260200190815260200160002083815481106109be576109bd61107a565b5b9060005260206000209060030201600082015481600001556001820160009054906101000a900473ffffffffffffffffffffffffffffffffffffffff168160010160006101000a81548173ffffffffffffffffffffffffffffffffffffffff021916908373ffffffffffffffffffffffffffffffffffffffff160217905550600282015481600201559050508180610a55906110d8565b925050610ba2565b600160008473ffffffffffffffffffffffffffffffffffffffff1673ffffffffffffffffffffffffffffffffffffffff168152602001908152602001600020600160003373ffffffffffffffffffffffffffffffffffffffff1673ffffffffffffffffffffffffffffffffffffffff1681526020019081526020016000208281548110610aed57610aec61107a565b5b90600052602060002090600302019080600181540180825580915050600190039060005260206000209060030201600090919091909150600082015481600001556001820160009054906101000a900473ffffffffffffffffffffffffffffffffffffffff168160010160006101000a81548173ffffffffffffffffffffffffffffffffffffffff021916908373ffffffffffffffffffffffffffffffffffffffff1602179055506002820154816002015550505b8080610bad906110d8565b91505061085b565b50505050565b600080fd5b600073ffffffffffffffffffffffffffffffffffffffff82169050919050565b6000610beb82610bc0565b9050919050565b610bfb81610be0565b8114610c0657600080fd5b50565b600081359050610c1881610bf2565b92915050565b6000819050919050565b610c3181610c1e565b8114610c3c57600080fd5b50565b600081359050610c4e81610c28565b92915050565b60008060408385031215610c6b57610c6a610bbb565b5b6000610c7985828601610c09565b9250506020610c8a85828601610c3f565b9150509250929050565b6000819050919050565b610ca781610c94565b82525050565b610cb681610be0565b82525050565b6000606082019050610cd16000830186610c9e565b610cde6020830185610cad565b610ceb6040830184610c9e565b949350505050565b610cfc81610c94565b8114610d0757600080fd5b50565b600081359050610d1981610cf3565b92915050565b60008060408385031215610d3657610d35610bbb565b5b6000610d4485828601610d0a565b9250506020610d5585828601610d0a565b9150509250929050565b600060208284031215610d7557610d74610bbb565b5b6000610d8384828501610c3f565b91505092915050565b600081519050919050565b600082825260208201905092915050565b6000819050602082019050919050565b610dc181610c94565b82525050565b610dd081610be0565b82525050565b606082016000820151610dec6000850182610db8565b506020820151610dff6020850182610dc7565b506040820151610e126040850182610db8565b50505050565b6000610e248383610dd6565b60608301905092915050565b6000602082019050919050565b6000610e4882610d8c565b610e528185610d97565b9350610e5d83610da8565b8060005b83811015610e8e578151610e758882610e18565b9750610e8083610e30565b925050600181019050610e61565b5085935050505092915050565b60006020820190508181036000830152610eb58184610e3d565b905092915050565b600060208284031215610ed357610ed2610bbb565b5b6000610ee184828501610d0a565b91505092915050565b60008060408385031215610f0157610f00610bbb565b5b6000610f0f85828601610d0a565b9250506020610f2085828601610c09565b9150509250929050565b600082825260208201905092915050565b7f5468697320776f72642068617320616c7265616479206265656e207375626d6960008201527f7474656400000000000000000000000000000000000000000000000000000000602082015250565b6000610f97602483610f2a565b9150610fa282610f3b565b604082019050919050565b60006020820190508181036000830152610fc681610f8a565b9050919050565b6000602082019050610fe26000830184610c9e565b92915050565b7f4f6e6c7920746865206f776e65722063616e207472616e73666572206f776e6560008201527f7273686970000000000000000000000000000000000000000000000000000000602082015250565b6000611044602583610f2a565b915061104f82610fe8565b604082019050919050565b6000602082019050818103600083015261107381611037565b9050919050565b7f4e487b7100000000000000000000000000000000000000000000000000000000600052603260045260246000fd5b7f4e487b7100000000000000000000000000000000000000000000000000000000600052601160045260246000fd5b60006110e382610c1e565b91507fffffffffffffffffffffffffffffffffffffffffffffffffffffffffffffffff8203611115576111146110a9565b5b60018201905091905056fea26469706673582212209e642e9daaaef3599943162406418500e242053766a072e550b0e0511764a08664736f6c634300080f0033",
  "immutableReferences": {},
  "source": "// SPDX-License-Identifier: GPL-3.0\npragma solidity >=0.4.22 <0.9.0;\n\ncontract Wordgasm {\n    mapping(bytes32 =>Word) public wordRegistry;\n    mapping(address =>Word[]) public userWordRegistry;\n    Word[] public words;\n\n\n    event NewWordAdded(address indexed _from, bytes32 _word);\n      struct Word {\n        bytes32 definition;\n        address owner;\n        bytes32 word;\n    }\n\n     // This function allows users to add new words to the blockchain\n    function submitWord(bytes32 _newWord, bytes32 _definition ) public {\n        // Ensure that the word has not already been submitted\n        require(wordRegistry[_newWord].word !=\"\" , \"This word has already been submitted\");\n\n        // Add the word to the blockchain and store the definition and the address of the submitter\n        userWordRegistry[msg.sender].push(Word(_definition,msg.sender,_newWord));\n        wordRegistry[_newWord] = Word(_definition,msg.sender,_newWord);\n        emit NewWordAdded(msg.sender,_newWord);\n        words.push(Word(_definition,msg.sender,_newWord));\n    }\n\n    function transferOwnership(bytes32 _word, address _newOwner) public {\n        // Ensure that the caller is the owner of the word\n        require(wordRegistry[_word].owner == msg.sender, \"Only the owner can transfer ownership\");\n\n        // Transfer ownership of the word to the new owner\n        wordRegistry[_word].owner = _newOwner;\n        uint j= 0;\n        for(uint i=0;i<userWordRegistry[msg.sender].length;i++){\n            if(userWordRegistry[msg.sender][i].word != _word) {\n                // updatedWords[j] = userWordRegistry[msg.sender][i];\n                userWordRegistry[msg.sender][j] = userWordRegistry[msg.sender][i];\n                j++;\n            } else {\n                userWordRegistry[_newOwner].push(userWordRegistry[msg.sender][i]);\n            }\n        }\n\n    }\n\n    function getAllWords() public view returns (Word[] memory) {\n        return words;\n    }\n\n    function getUserWords() public view returns (Word[] memory) {\n        return userWordRegistry[msg.sender];\n    }\n}",
  "sourcePath": "/Users/shubamagrawal/Documents/wordgasm/src/contracts/Wordgasm.sol",
  "compiler": {
    "name": "solc",
    "version": "0.8.15+commit.e14f2714.Emscripten.clang"
  },
  "schemaVersion": "3.4.10",
  "updatedAt": "2023-01-08T15:27:21.959Z",
  "networkType": "ethereum",
  "devdoc": {
    "kind": "dev",
    "methods": {},
    "version": 1
  },
  "userdoc": {
    "kind": "user",
    "methods": {},
    "version": 1
  }
}