{
  "contractName": "WordCoin",
  "abi": [
    {
      "inputs": [],
      "stateMutability": "nonpayable",
      "type": "constructor"
    },
    {
      "anonymous": false,
      "inputs": [
        {
          "indexed": true,
          "internalType": "address",
          "name": "_owner",
          "type": "address"
        },
        {
          "indexed": true,
          "internalType": "address",
          "name": "_spender",
          "type": "address"
        },
        {
          "indexed": false,
          "internalType": "uint256",
          "name": "_value",
          "type": "uint256"
        }
      ],
      "name": "Approval",
      "type": "event"
    },
    {
      "anonymous": false,
      "inputs": [
        {
          "indexed": true,
          "internalType": "address",
          "name": "_to",
          "type": "address"
        },
        {
          "indexed": false,
          "internalType": "uint256",
          "name": "_value",
          "type": "uint256"
        }
      ],
      "name": "FreeTokens",
      "type": "event"
    },
    {
      "anonymous": false,
      "inputs": [
        {
          "indexed": true,
          "internalType": "address",
          "name": "_from",
          "type": "address"
        },
        {
          "indexed": true,
          "internalType": "address",
          "name": "_to",
          "type": "address"
        },
        {
          "indexed": false,
          "internalType": "uint256",
          "name": "_value",
          "type": "uint256"
        }
      ],
      "name": "Transfer",
      "type": "event"
    },
    {
      "inputs": [
        {
          "internalType": "address",
          "name": "",
          "type": "address"
        },
        {
          "internalType": "address",
          "name": "",
          "type": "address"
        }
      ],
      "name": "allowance",
      "outputs": [
        {
          "internalType": "uint256",
          "name": "",
          "type": "uint256"
        }
      ],
      "stateMutability": "view",
      "type": "function",
      "constant": true
    },
    {
      "inputs": [
        {
          "internalType": "address",
          "name": "",
          "type": "address"
        }
      ],
      "name": "balanceOf",
      "outputs": [
        {
          "internalType": "uint256",
          "name": "",
          "type": "uint256"
        }
      ],
      "stateMutability": "view",
      "type": "function",
      "constant": true
    },
    {
      "inputs": [],
      "name": "decimals",
      "outputs": [
        {
          "internalType": "uint256",
          "name": "",
          "type": "uint256"
        }
      ],
      "stateMutability": "view",
      "type": "function",
      "constant": true
    },
    {
      "inputs": [],
      "name": "name",
      "outputs": [
        {
          "internalType": "string",
          "name": "",
          "type": "string"
        }
      ],
      "stateMutability": "view",
      "type": "function",
      "constant": true
    },
    {
      "inputs": [],
      "name": "symbol",
      "outputs": [
        {
          "internalType": "string",
          "name": "",
          "type": "string"
        }
      ],
      "stateMutability": "view",
      "type": "function",
      "constant": true
    },
    {
      "inputs": [],
      "name": "totalSupply",
      "outputs": [
        {
          "internalType": "uint256",
          "name": "",
          "type": "uint256"
        }
      ],
      "stateMutability": "view",
      "type": "function",
      "constant": true
    },
    {
      "inputs": [
        {
          "internalType": "address",
          "name": "_to",
          "type": "address"
        },
        {
          "internalType": "uint256",
          "name": "_value",
          "type": "uint256"
        }
      ],
      "name": "transfer",
      "outputs": [
        {
          "internalType": "bool",
          "name": "success",
          "type": "bool"
        }
      ],
      "stateMutability": "nonpayable",
      "type": "function"
    },
    {
      "inputs": [],
      "name": "issueFreeTokens",
      "outputs": [
        {
          "internalType": "bool",
          "name": "success",
          "type": "bool"
        }
      ],
      "stateMutability": "nonpayable",
      "type": "function"
    },
    {
      "inputs": [
        {
          "internalType": "address",
          "name": "_spender",
          "type": "address"
        },
        {
          "internalType": "uint256",
          "name": "_value",
          "type": "uint256"
        }
      ],
      "name": "approve",
      "outputs": [
        {
          "internalType": "bool",
          "name": "success",
          "type": "bool"
        }
      ],
      "stateMutability": "nonpayable",
      "type": "function"
    },
    {
      "inputs": [
        {
          "internalType": "address",
          "name": "_from",
          "type": "address"
        },
        {
          "internalType": "address",
          "name": "_to",
          "type": "address"
        },
        {
          "internalType": "uint256",
          "name": "_value",
          "type": "uint256"
        }
      ],
      "name": "transferFrom",
      "outputs": [
        {
          "internalType": "bool",
          "name": "success",
          "type": "bool"
        }
      ],
      "stateMutability": "nonpayable",
      "type": "function"
    }
  ],
  "bytecode": "0x60806040526040518060400160405280600d81526020017f576f72646761736d20436f696e00000000000000000000000000000000000000815250600090816200004a91906200037b565b506040518060400160405280600381526020017f5747430000000000000000000000000000000000000000000000000000000000815250600190816200009191906200037b565b506b033b2e3c9fd0803ce80000006002556012600355348015620000b457600080fd5b50600254600460003373ffffffffffffffffffffffffffffffffffffffff1673ffffffffffffffffffffffffffffffffffffffff1681526020019081526020016000208190555062000462565b600081519050919050565b7f4e487b7100000000000000000000000000000000000000000000000000000000600052604160045260246000fd5b7f4e487b7100000000000000000000000000000000000000000000000000000000600052602260045260246000fd5b600060028204905060018216806200018357607f821691505b6020821081036200019957620001986200013b565b5b50919050565b60008190508160005260206000209050919050565b60006020601f8301049050919050565b600082821b905092915050565b600060088302620002037fffffffffffffffffffffffffffffffffffffffffffffffffffffffffffffffff82620001c4565b6200020f8683620001c4565b95508019841693508086168417925050509392505050565b6000819050919050565b6000819050919050565b60006200025c62000256620002508462000227565b62000231565b62000227565b9050919050565b6000819050919050565b62000278836200023b565b62000290620002878262000263565b848454620001d1565b825550505050565b600090565b620002a762000298565b620002b48184846200026d565b505050565b5b81811015620002dc57620002d06000826200029d565b600181019050620002ba565b5050565b601f8211156200032b57620002f5816200019f565b6200030084620001b4565b8101602085101562000310578190505b620003286200031f85620001b4565b830182620002b9565b50505b505050565b600082821c905092915050565b6000620003506000198460080262000330565b1980831691505092915050565b60006200036b83836200033d565b9150826002028217905092915050565b620003868262000101565b67ffffffffffffffff811115620003a257620003a16200010c565b5b620003ae82546200016a565b620003bb828285620002e0565b600060209050601f831160018114620003f35760008415620003de578287015190505b620003ea85826200035d565b8655506200045a565b601f19841662000403866200019f565b60005b828110156200042d5784890151825560018201915060208501945060208101905062000406565b868310156200044d578489015162000449601f8916826200033d565b8355505b6001600288020188555050505b505050505050565b610d8d80620004726000396000f3fe608060405234801561001057600080fd5b506004361061009e5760003560e01c806370a082311161006657806370a082311461015d57806371ed3af61461018d57806395d89b41146101ab578063a9059cbb146101c9578063dd62ed3e146101f95761009e565b806306fdde03146100a3578063095ea7b3146100c157806318160ddd146100f157806323b872dd1461010f578063313ce5671461013f575b600080fd5b6100ab610229565b6040516100b891906109c3565b60405180910390f35b6100db60048036038101906100d69190610a7e565b6102b7565b6040516100e89190610ad9565b60405180910390f35b6100f96103a5565b6040516101069190610b03565b60405180910390f35b61012960048036038101906101249190610b1e565b6103ab565b6040516101369190610ad9565b60405180910390f35b610147610631565b6040516101549190610b03565b60405180910390f35b61017760048036038101906101729190610b71565b610637565b6040516101849190610b03565b60405180910390f35b61019561064f565b6040516101a29190610ad9565b60405180910390f35b6101b361070e565b6040516101c091906109c3565b60405180910390f35b6101e360048036038101906101de9190610a7e565b61079c565b6040516101f09190610ad9565b60405180910390f35b610213600480360381019061020e9190610b9e565b610905565b6040516102209190610b03565b60405180910390f35b6000805461023690610c0d565b80601f016020809104026020016040519081016040528092919081815260200182805461026290610c0d565b80156102af5780601f10610284576101008083540402835291602001916102af565b820191906000526020600020905b81548152906001019060200180831161029257829003601f168201915b505050505081565b600081600560003373ffffffffffffffffffffffffffffffffffffffff1673ffffffffffffffffffffffffffffffffffffffff16815260200190815260200160002060008573ffffffffffffffffffffffffffffffffffffffff1673ffffffffffffffffffffffffffffffffffffffff168152602001908152602001600020819055508273ffffffffffffffffffffffffffffffffffffffff163373ffffffffffffffffffffffffffffffffffffffff167f8c5be1e5ebec7d5bd14f71427d1e84f3dd0314c0f7b2291e5b200ac8c7c3b925846040516103979190610b03565b60405180910390a392915050565b60025481565b6000600460008573ffffffffffffffffffffffffffffffffffffffff1673ffffffffffffffffffffffffffffffffffffffff168152602001908152602001600020548211156103f957600080fd5b600560008573ffffffffffffffffffffffffffffffffffffffff1673ffffffffffffffffffffffffffffffffffffffff16815260200190815260200160002060003373ffffffffffffffffffffffffffffffffffffffff1673ffffffffffffffffffffffffffffffffffffffff1681526020019081526020016000205482111561048257600080fd5b81600460008673ffffffffffffffffffffffffffffffffffffffff1673ffffffffffffffffffffffffffffffffffffffff16815260200190815260200160002060008282546104d19190610c6d565b9250508190555081600460008573ffffffffffffffffffffffffffffffffffffffff1673ffffffffffffffffffffffffffffffffffffffff16815260200190815260200160002060008282546105279190610ca1565b9250508190555081600560003373ffffffffffffffffffffffffffffffffffffffff1673ffffffffffffffffffffffffffffffffffffffff16815260200190815260200160002060008673ffffffffffffffffffffffffffffffffffffffff1673ffffffffffffffffffffffffffffffffffffffff16815260200190815260200160002060008282546105ba9190610c6d565b925050819055508273ffffffffffffffffffffffffffffffffffffffff168473ffffffffffffffffffffffffffffffffffffffff167fddf252ad1be2c89b69c2b068fc378daa952ba7f163c4a11628f55a4df523b3ef8460405161061e9190610b03565b60405180910390a3600190509392505050565b60035481565b60046020528060005260406000206000915090505481565b600068056bc75e2d63100000600460003373ffffffffffffffffffffffffffffffffffffffff1673ffffffffffffffffffffffffffffffffffffffff16815260200190815260200160002060008282546106a99190610ca1565b925050819055503373ffffffffffffffffffffffffffffffffffffffff167faa68b35e9efc44ffd0f46fdd9c04fa1b5eeb4e3415d1dd81f8d389a9d3397c5b68056bc75e2d631000006040516106ff9190610d3c565b60405180910390a26001905090565b6001805461071b90610c0d565b80601f016020809104026020016040519081016040528092919081815260200182805461074790610c0d565b80156107945780601f1061076957610100808354040283529160200191610794565b820191906000526020600020905b81548152906001019060200180831161077757829003601f168201915b505050505081565b600081600460003373ffffffffffffffffffffffffffffffffffffffff1673ffffffffffffffffffffffffffffffffffffffff1681526020019081526020016000205410156107ea57600080fd5b81600460003373ffffffffffffffffffffffffffffffffffffffff1673ffffffffffffffffffffffffffffffffffffffff16815260200190815260200160002060008282546108399190610c6d565b9250508190555081600460008573ffffffffffffffffffffffffffffffffffffffff1673ffffffffffffffffffffffffffffffffffffffff168152602001908152602001600020600082825461088f9190610ca1565b925050819055508273ffffffffffffffffffffffffffffffffffffffff163373ffffffffffffffffffffffffffffffffffffffff167fddf252ad1be2c89b69c2b068fc378daa952ba7f163c4a11628f55a4df523b3ef846040516108f39190610b03565b60405180910390a36001905092915050565b6005602052816000526040600020602052806000526040600020600091509150505481565b600081519050919050565b600082825260208201905092915050565b60005b83811015610964578082015181840152602081019050610949565b83811115610973576000848401525b50505050565b6000601f19601f8301169050919050565b60006109958261092a565b61099f8185610935565b93506109af818560208601610946565b6109b881610979565b840191505092915050565b600060208201905081810360008301526109dd818461098a565b905092915050565b600080fd5b600073ffffffffffffffffffffffffffffffffffffffff82169050919050565b6000610a15826109ea565b9050919050565b610a2581610a0a565b8114610a3057600080fd5b50565b600081359050610a4281610a1c565b92915050565b6000819050919050565b610a5b81610a48565b8114610a6657600080fd5b50565b600081359050610a7881610a52565b92915050565b60008060408385031215610a9557610a946109e5565b5b6000610aa385828601610a33565b9250506020610ab485828601610a69565b9150509250929050565b60008115159050919050565b610ad381610abe565b82525050565b6000602082019050610aee6000830184610aca565b92915050565b610afd81610a48565b82525050565b6000602082019050610b186000830184610af4565b92915050565b600080600060608486031215610b3757610b366109e5565b5b6000610b4586828701610a33565b9350506020610b5686828701610a33565b9250506040610b6786828701610a69565b9150509250925092565b600060208284031215610b8757610b866109e5565b5b6000610b9584828501610a33565b91505092915050565b60008060408385031215610bb557610bb46109e5565b5b6000610bc385828601610a33565b9250506020610bd485828601610a33565b9150509250929050565b7f4e487b7100000000000000000000000000000000000000000000000000000000600052602260045260246000fd5b60006002820490506001821680610c2557607f821691505b602082108103610c3857610c37610bde565b5b50919050565b7f4e487b7100000000000000000000000000000000000000000000000000000000600052601160045260246000fd5b6000610c7882610a48565b9150610c8383610a48565b925082821015610c9657610c95610c3e565b5b828203905092915050565b6000610cac82610a48565b9150610cb783610a48565b9250827fffffffffffffffffffffffffffffffffffffffffffffffffffffffffffffffff03821115610cec57610ceb610c3e565b5b828201905092915050565b6000819050919050565b6000819050919050565b6000610d26610d21610d1c84610cf7565b610d01565b610a48565b9050919050565b610d3681610d0b565b82525050565b6000602082019050610d516000830184610d2d565b9291505056fea264697066735822122095eddb35e244b5af452c5149b4a415f6b18c33f279d56afa5492f578b1b4fd7364736f6c634300080f0033",
  "immutableReferences": {},
  "source": "// SPDX-License-Identifier: GPL-3.0\npragma solidity >=0.4.22 <0.9.0;\n\ncontract WordCoin {\n    string public name = \"Wordgasm Coin\";\n    string public symbol = \"WGC\";\n    uint256 public totalSupply = 1000000000000000000000000000;\n    uint256 public decimals = 18;\n\n    event Transfer(address indexed _from, address indexed _to, uint256 _value);\n    event Approval(\n        address indexed _owner,\n        address indexed _spender,\n        uint256 _value\n    );\n    event FreeTokens(address indexed _to, uint256 _value);\n\n    mapping(address => uint256) public balanceOf;\n    mapping(address => mapping(address => uint256)) public allowance;\n\n    constructor() public {\n        balanceOf[msg.sender] = totalSupply;\n    }\n\n    function transfer(address _to, uint256 _value)\n        public\n        returns (bool success)\n    {\n        require(balanceOf[msg.sender] >= _value);\n        balanceOf[msg.sender] -= _value;\n        balanceOf[_to] += _value;\n        emit Transfer(msg.sender, _to, _value);\n        return true;\n    }\n\n    function issueFreeTokens() public returns (bool success) {\n        balanceOf[msg.sender] += 100000000000000000000;\n        emit FreeTokens(msg.sender, 100000000000000000000);\n        return true;\n    }\n\n    function approve(address _spender, uint256 _value)\n        public\n        returns (bool success)\n    {\n        allowance[msg.sender][_spender] = _value;\n        emit Approval(msg.sender, _spender, _value);\n    }\n\n    function transferFrom(\n        address _from,\n        address _to,\n        uint256 _value\n    ) public returns (bool success) {\n        require(_value <= balanceOf[_from]);\n        require(_value <= allowance[_from][msg.sender]);\n        balanceOf[_from] -= _value;\n        balanceOf[_to] += _value;\n        allowance[msg.sender][_from] -= _value;\n        emit Transfer(_from, _to, _value);\n        return true;\n    }\n}\n",
  "sourcePath": "/Users/shubamagrawal/Documents/wordgasm/src/contracts/Wordcoin.sol",
  "compiler": {
    "name": "solc",
    "version": "0.8.15+commit.e14f2714.Emscripten.clang"
  },
  "schemaVersion": "3.4.10",
  "updatedAt": "2023-01-08T15:27:21.956Z",
  "networkType": "ethereum",
  "devdoc": {
    "kind": "dev",
    "methods": {},
    "version": 1
  },
  "userdoc": {
    "kind": "user",
    "methods": {},
    "version": 1
  }
}